{
  "contractName": "Car",
  "abi": [
    {
      "constant": true,
      "inputs": [
        {
          "name": "interfaceId",
          "type": "bytes4"
        }
      ],
      "name": "supportsInterface",
      "outputs": [
        {
          "name": "",
          "type": "bool"
        }
      ],
      "payable": false,
      "stateMutability": "view",
      "type": "function",
      "signature": "0x01ffc9a7"
    },
    {
      "constant": true,
      "inputs": [],
      "name": "name",
      "outputs": [
        {
          "name": "",
          "type": "string"
        }
      ],
      "payable": false,
      "stateMutability": "view",
      "type": "function",
      "signature": "0x06fdde03"
    },
    {
      "constant": true,
      "inputs": [
        {
          "name": "tokenId",
          "type": "uint256"
        }
      ],
      "name": "getApproved",
      "outputs": [
        {
          "name": "",
          "type": "address"
        }
      ],
      "payable": false,
      "stateMutability": "view",
      "type": "function",
      "signature": "0x081812fc"
    },
    {
      "constant": false,
      "inputs": [
        {
          "name": "to",
          "type": "address"
        },
        {
          "name": "tokenId",
          "type": "uint256"
        }
      ],
      "name": "approve",
      "outputs": [],
      "payable": false,
      "stateMutability": "nonpayable",
      "type": "function",
      "signature": "0x095ea7b3"
    },
    {
      "constant": true,
      "inputs": [],
      "name": "totalSupply",
      "outputs": [
        {
          "name": "",
          "type": "uint256"
        }
      ],
      "payable": false,
      "stateMutability": "view",
      "type": "function",
      "signature": "0x18160ddd"
    },
    {
      "constant": false,
      "inputs": [
        {
          "name": "from",
          "type": "address"
        },
        {
          "name": "to",
          "type": "address"
        },
        {
          "name": "tokenId",
          "type": "uint256"
        }
      ],
      "name": "transferFrom",
      "outputs": [],
      "payable": false,
      "stateMutability": "nonpayable",
      "type": "function",
      "signature": "0x23b872dd"
    },
    {
      "constant": true,
      "inputs": [
        {
          "name": "owner",
          "type": "address"
        },
        {
          "name": "index",
          "type": "uint256"
        }
      ],
      "name": "tokenOfOwnerByIndex",
      "outputs": [
        {
          "name": "",
          "type": "uint256"
        }
      ],
      "payable": false,
      "stateMutability": "view",
      "type": "function",
      "signature": "0x2f745c59"
    },
    {
      "constant": false,
      "inputs": [
        {
          "name": "from",
          "type": "address"
        },
        {
          "name": "to",
          "type": "address"
        },
        {
          "name": "tokenId",
          "type": "uint256"
        }
      ],
      "name": "safeTransferFrom",
      "outputs": [],
      "payable": false,
      "stateMutability": "nonpayable",
      "type": "function",
      "signature": "0x42842e0e"
    },
    {
      "constant": true,
      "inputs": [
        {
          "name": "index",
          "type": "uint256"
        }
      ],
      "name": "tokenByIndex",
      "outputs": [
        {
          "name": "",
          "type": "uint256"
        }
      ],
      "payable": false,
      "stateMutability": "view",
      "type": "function",
      "signature": "0x4f6ccce7"
    },
    {
      "constant": true,
      "inputs": [
        {
          "name": "tokenId",
          "type": "uint256"
        }
      ],
      "name": "ownerOf",
      "outputs": [
        {
          "name": "",
          "type": "address"
        }
      ],
      "payable": false,
      "stateMutability": "view",
      "type": "function",
      "signature": "0x6352211e"
    },
    {
      "constant": true,
      "inputs": [
        {
          "name": "owner",
          "type": "address"
        }
      ],
      "name": "balanceOf",
      "outputs": [
        {
          "name": "",
          "type": "uint256"
        }
      ],
      "payable": false,
      "stateMutability": "view",
      "type": "function",
      "signature": "0x70a08231"
    },
    {
      "constant": false,
      "inputs": [],
      "name": "renounceOwnership",
      "outputs": [],
      "payable": false,
      "stateMutability": "nonpayable",
      "type": "function",
      "signature": "0x715018a6"
    },
    {
      "constant": true,
      "inputs": [],
      "name": "owner",
      "outputs": [
        {
          "name": "",
          "type": "address"
        }
      ],
      "payable": false,
      "stateMutability": "view",
      "type": "function",
      "signature": "0x8da5cb5b"
    },
    {
      "constant": true,
      "inputs": [],
      "name": "isOwner",
      "outputs": [
        {
          "name": "",
          "type": "bool"
        }
      ],
      "payable": false,
      "stateMutability": "view",
      "type": "function",
      "signature": "0x8f32d59b"
    },
    {
      "constant": true,
      "inputs": [],
      "name": "symbol",
      "outputs": [
        {
          "name": "",
          "type": "string"
        }
      ],
      "payable": false,
      "stateMutability": "view",
      "type": "function",
      "signature": "0x95d89b41"
    },
    {
      "constant": false,
      "inputs": [
        {
          "name": "to",
          "type": "address"
        },
        {
          "name": "approved",
          "type": "bool"
        }
      ],
      "name": "setApprovalForAll",
      "outputs": [],
      "payable": false,
      "stateMutability": "nonpayable",
      "type": "function",
      "signature": "0xa22cb465"
    },
    {
      "constant": false,
      "inputs": [
        {
          "name": "from",
          "type": "address"
        },
        {
          "name": "to",
          "type": "address"
        },
        {
          "name": "tokenId",
          "type": "uint256"
        },
        {
          "name": "_data",
          "type": "bytes"
        }
      ],
      "name": "safeTransferFrom",
      "outputs": [],
      "payable": false,
      "stateMutability": "nonpayable",
      "type": "function",
      "signature": "0xb88d4fde"
    },
    {
      "constant": true,
      "inputs": [
        {
          "name": "tokenId",
          "type": "uint256"
        }
      ],
      "name": "tokenURI",
      "outputs": [
        {
          "name": "",
          "type": "string"
        }
      ],
      "payable": false,
      "stateMutability": "view",
      "type": "function",
      "signature": "0xc87b56dd"
    },
    {
      "constant": true,
      "inputs": [
        {
          "name": "owner",
          "type": "address"
        },
        {
          "name": "operator",
          "type": "address"
        }
      ],
      "name": "isApprovedForAll",
      "outputs": [
        {
          "name": "",
          "type": "bool"
        }
      ],
      "payable": false,
      "stateMutability": "view",
      "type": "function",
      "signature": "0xe985e9c5"
    },
    {
      "constant": false,
      "inputs": [
        {
          "name": "newOwner",
          "type": "address"
        }
      ],
      "name": "transferOwnership",
      "outputs": [],
      "payable": false,
      "stateMutability": "nonpayable",
      "type": "function",
      "signature": "0xf2fde38b"
    },
    {
      "inputs": [],
      "payable": false,
      "stateMutability": "nonpayable",
      "type": "constructor",
      "signature": "constructor"
    },
    {
      "anonymous": false,
      "inputs": [
        {
          "indexed": false,
          "name": "model",
          "type": "string"
        },
        {
          "indexed": false,
          "name": "chassisId",
          "type": "string"
        },
        {
          "indexed": false,
          "name": "manufacturingYear",
          "type": "uint256"
        },
        {
          "indexed": false,
          "name": "description",
          "type": "string"
        },
        {
          "indexed": false,
          "name": "pictureUrl",
          "type": "string"
        }
      ],
      "name": "LogCarCreation",
      "type": "event",
      "signature": "0x8ce31173f83343252a41aa4b6d34e5ad54f69d907780e0e538dccdb43f6c9cd3"
    },
    {
      "anonymous": false,
      "inputs": [
        {
          "indexed": false,
          "name": "eventType",
          "type": "string"
        },
        {
          "indexed": false,
          "name": "createdAt",
          "type": "string"
        },
        {
          "indexed": false,
          "name": "attachmentUrl",
          "type": "string"
        },
        {
          "indexed": false,
          "name": "description",
          "type": "string"
        }
      ],
      "name": "LogEventCreation",
      "type": "event",
      "signature": "0x2fe55365084067a83ed1bb9d05c75e7ed63c59a650ddd97ceaf0b12c71e74a89"
    },
    {
      "anonymous": false,
      "inputs": [
        {
          "indexed": true,
          "name": "previousOwner",
          "type": "address"
        },
        {
          "indexed": true,
          "name": "newOwner",
          "type": "address"
        }
      ],
      "name": "OwnershipTransferred",
      "type": "event",
      "signature": "0x8be0079c531659141344cd1fd0a4f28419497f9722a3daafe3b4186f6b6457e0"
    },
    {
      "anonymous": false,
      "inputs": [
        {
          "indexed": true,
          "name": "from",
          "type": "address"
        },
        {
          "indexed": true,
          "name": "to",
          "type": "address"
        },
        {
          "indexed": true,
          "name": "tokenId",
          "type": "uint256"
        }
      ],
      "name": "Transfer",
      "type": "event",
      "signature": "0xddf252ad1be2c89b69c2b068fc378daa952ba7f163c4a11628f55a4df523b3ef"
    },
    {
      "anonymous": false,
      "inputs": [
        {
          "indexed": true,
          "name": "owner",
          "type": "address"
        },
        {
          "indexed": true,
          "name": "approved",
          "type": "address"
        },
        {
          "indexed": true,
          "name": "tokenId",
          "type": "uint256"
        }
      ],
      "name": "Approval",
      "type": "event",
      "signature": "0x8c5be1e5ebec7d5bd14f71427d1e84f3dd0314c0f7b2291e5b200ac8c7c3b925"
    },
    {
      "anonymous": false,
      "inputs": [
        {
          "indexed": true,
          "name": "owner",
          "type": "address"
        },
        {
          "indexed": true,
          "name": "operator",
          "type": "address"
        },
        {
          "indexed": false,
          "name": "approved",
          "type": "bool"
        }
      ],
      "name": "ApprovalForAll",
      "type": "event",
      "signature": "0x17307eab39ab6107e8899845ad3d59bd9653f200f220920489ca2b5937696c31"
    },
    {
      "constant": false,
      "inputs": [],
      "name": "freeze",
      "outputs": [],
      "payable": false,
      "stateMutability": "nonpayable",
      "type": "function",
      "signature": "0x62a5af3b"
    },
    {
      "constant": false,
      "inputs": [],
      "name": "unfreeze",
      "outputs": [],
      "payable": false,
      "stateMutability": "nonpayable",
      "type": "function",
      "signature": "0x6a28f000"
    },
    {
      "constant": false,
      "inputs": [
        {
          "name": "_make",
          "type": "string"
        },
        {
          "name": "_model",
          "type": "string"
        },
        {
          "name": "_chassisId",
          "type": "string"
        },
        {
          "name": "_manufacturingYear",
          "type": "uint256"
        },
        {
          "name": "_description",
          "type": "string"
        },
        {
          "name": "_pictureUrl",
          "type": "string"
        }
      ],
      "name": "mint",
      "outputs": [],
      "payable": false,
      "stateMutability": "nonpayable",
      "type": "function",
      "signature": "0x2b575230"
    },
    {
      "constant": true,
      "inputs": [
        {
          "name": "_carIndex",
          "type": "uint256"
        }
      ],
      "name": "getCarData",
      "outputs": [
        {
          "name": "",
          "type": "string"
        },
        {
          "name": "",
          "type": "string"
        },
        {
          "name": "",
          "type": "string"
        },
        {
          "name": "",
          "type": "uint256"
        },
        {
          "name": "",
          "type": "string"
        },
        {
          "name": "",
          "type": "string"
        }
      ],
      "payable": false,
      "stateMutability": "view",
      "type": "function",
      "signature": "0xfb9acd8e"
    },
    {
      "constant": false,
      "inputs": [
        {
          "name": "_tokenId",
          "type": "uint256"
        },
        {
          "name": "_eventType",
          "type": "string"
        },
        {
          "name": "_createdAt",
          "type": "string"
        },
        {
          "name": "_attachmentUrl",
          "type": "string"
        },
        {
          "name": "_description",
          "type": "string"
        }
      ],
      "name": "addCarEvent",
      "outputs": [],
      "payable": false,
      "stateMutability": "nonpayable",
      "type": "function",
      "signature": "0x466521b4"
    },
    {
      "constant": true,
      "inputs": [
        {
          "name": "_tokenId",
          "type": "uint256"
        }
      ],
      "name": "carEventsCount",
      "outputs": [
        {
          "name": "",
          "type": "uint256"
        }
      ],
      "payable": false,
      "stateMutability": "view",
      "type": "function",
      "signature": "0x1aec0f13"
    },
    {
      "constant": true,
      "inputs": [
        {
          "name": "_tokenId",
          "type": "uint256"
        },
        {
          "name": "_eventIndex",
          "type": "uint256"
        }
      ],
      "name": "getCarEvent",
      "outputs": [
        {
          "name": "",
          "type": "string"
        },
        {
          "name": "",
          "type": "string"
        },
        {
          "name": "",
          "type": "string"
        },
        {
          "name": "",
          "type": "string"
        }
      ],
      "payable": false,
      "stateMutability": "view",
      "type": "function",
      "signature": "0xd3af8f27"
    }
  ],
  "bytecode": "0x6080604052600c8054600160a01b60ff02191690553480156200002157600080fd5b506040518060400160405280600881526020017f436172546f6b656e0000000000000000000000000000000000000000000000008152506040518060400160405280600381526020017f43415200000000000000000000000000000000000000000000000000000000008152508181620000a86301ffc9a760e01b6200018260201b60201c565b620000c06380ac58cd60e01b6200018260201b60201c565b620000d863780e9d6360e01b6200018260201b60201c565b8151620000ed90600990602085019062000256565b5080516200010390600a90602084019062000256565b506200011c635b5e139f60e01b6200018260201b60201c565b50505050620001306200025160201b60201c565b600c80546001600160a01b0319166001600160a01b0392831617908190556040519116906000907f8be0079c531659141344cd1fd0a4f28419497f9722a3daafe3b4186f6b6457e0908290a3620002f8565b7fffffffff0000000000000000000000000000000000000000000000000000000080821614156200021457604080517f08c379a000000000000000000000000000000000000000000000000000000000815260206004820152601c60248201527f4552433136353a20696e76616c696420696e7465726661636520696400000000604482015290519081900360640190fd5b7fffffffff00000000000000000000000000000000000000000000000000000000166000908152602081905260409020805460ff19166001179055565b335b90565b828054600181600116156101000203166002900490600052602060002090601f016020900481019282601f106200029957805160ff1916838001178555620002c9565b82800160010185558215620002c9579182015b82811115620002c9578251825591602001919060010190620002ac565b50620002d7929150620002db565b5090565b6200025391905b80821115620002d75760008155600101620002e2565b6131bc80620003086000396000f3fe608060405234801561001057600080fd5b50600436106101a95760003560e01c80636352211e116100f9578063a22cb46511610097578063d3af8f2711610071578063d3af8f2714610a35578063e985e9c514610c02578063f2fde38b14610c30578063fb9acd8e14610c56576101a9565b8063a22cb46514610926578063b88d4fde14610954578063c87b56dd14610a18576101a9565b8063715018a6116100d3578063715018a6146109065780638da5cb5b1461090e5780638f32d59b1461091657806395d89b411461091e576101a9565b80636352211e146108bb5780636a28f000146108d857806370a08231146108e0576101a9565b806323b872dd1161016657806342842e0e1161014057806342842e0e14610626578063466521b41461065c5780634f6ccce71461089657806362a5af3b146108b3576101a9565b806323b872dd146103045780632b5752301461033a5780632f745c59146105fa576101a9565b806301ffc9a7146101ae57806306fdde03146101e9578063081812fc14610266578063095ea7b31461029f57806318160ddd146102cd5780631aec0f13146102e7575b600080fd5b6101d5600480360360208110156101c457600080fd5b50356001600160e01b031916610e8a565b604080519115158252519081900360200190f35b6101f1610ea9565b6040805160208082528351818301528351919283929083019185019080838360005b8381101561022b578181015183820152602001610213565b50505050905090810190601f1680156102585780820380516001836020036101000a031916815260200191505b509250505060405180910390f35b6102836004803603602081101561027c57600080fd5b5035610f40565b604080516001600160a01b039092168252519081900360200190f35b6102cb600480360360408110156102b557600080fd5b506001600160a01b038135169060200135610fa7565b005b6102d56110d1565b60408051918252519081900360200190f35b6102d5600480360360208110156102fd57600080fd5b50356110d7565b6102cb6004803603606081101561031a57600080fd5b506001600160a01b03813581169160208101359091169060400135611144565b6102cb600480360360c081101561035057600080fd5b810190602081018135600160201b81111561036a57600080fd5b82018360208201111561037c57600080fd5b803590602001918460018302840111600160201b8311171561039d57600080fd5b91908080601f0160208091040260200160405190810160405280939291908181526020018383808284376000920191909152509295949360208101935035915050600160201b8111156103ef57600080fd5b82018360208201111561040157600080fd5b803590602001918460018302840111600160201b8311171561042257600080fd5b91908080601f0160208091040260200160405190810160405280939291908181526020018383808284376000920191909152509295949360208101935035915050600160201b81111561047457600080fd5b82018360208201111561048657600080fd5b803590602001918460018302840111600160201b831117156104a757600080fd5b91908080601f01602080910402602001604051908101604052809392919081815260200183838082843760009201919091525092958435959094909350604081019250602001359050600160201b81111561050157600080fd5b82018360208201111561051357600080fd5b803590602001918460018302840111600160201b8311171561053457600080fd5b91908080601f0160208091040260200160405190810160405280939291908181526020018383808284376000920191909152509295949360208101935035915050600160201b81111561058657600080fd5b82018360208201111561059857600080fd5b803590602001918460018302840111600160201b831117156105b957600080fd5b91908080601f0160208091040260200160405190810160405280939291908181526020018383808284376000920191909152509295506111a5945050505050565b6102d56004803603604081101561061057600080fd5b506001600160a01b0381351690602001356114c0565b6102cb6004803603606081101561063c57600080fd5b506001600160a01b03813581169160208101359091169060400135611542565b6102cb600480360360a081101561067257600080fd5b81359190810190604081016020820135600160201b81111561069357600080fd5b8201836020820111156106a557600080fd5b803590602001918460018302840111600160201b831117156106c657600080fd5b91908080601f0160208091040260200160405190810160405280939291908181526020018383808284376000920191909152509295949360208101935035915050600160201b81111561071857600080fd5b82018360208201111561072a57600080fd5b803590602001918460018302840111600160201b8311171561074b57600080fd5b91908080601f0160208091040260200160405190810160405280939291908181526020018383808284376000920191909152509295949360208101935035915050600160201b81111561079d57600080fd5b8201836020820111156107af57600080fd5b803590602001918460018302840111600160201b831117156107d057600080fd5b91908080601f0160208091040260200160405190810160405280939291908181526020018383808284376000920191909152509295949360208101935035915050600160201b81111561082257600080fd5b82018360208201111561083457600080fd5b803590602001918460018302840111600160201b8311171561085557600080fd5b91908080601f01602080910402602001604051908101604052809392919081815260200183838082843760009201919091525092955061155d945050505050565b6102d5600480360360208110156108ac57600080fd5b50356118c0565b6102cb61192a565b610283600480360360208110156108d157600080fd5b503561198e565b6102cb6119ed565b6102d5600480360360208110156108f657600080fd5b50356001600160a01b0316611a4b565b6102cb611ab8565b610283611b4e565b6101d5611b5d565b6101f1611b83565b6102cb6004803603604081101561093c57600080fd5b506001600160a01b0381351690602001351515611be4565b6102cb6004803603608081101561096a57600080fd5b6001600160a01b03823581169260208101359091169160408201359190810190608081016060820135600160201b8111156109a457600080fd5b8201836020820111156109b657600080fd5b803590602001918460018302840111600160201b831117156109d757600080fd5b91908080601f016020809104026020016040519081016040528093929190818152602001838380828437600092019190915250929550611ce6945050505050565b6101f160048036036020811015610a2e57600080fd5b5035611d49565b610a5860048036036040811015610a4b57600080fd5b5080359060200135611e33565b6040518080602001806020018060200180602001858103855289818151815260200191508051906020019080838360005b83811015610aa1578181015183820152602001610a89565b50505050905090810190601f168015610ace5780820380516001836020036101000a031916815260200191505b5085810384528851815288516020918201918a019080838360005b83811015610b01578181015183820152602001610ae9565b50505050905090810190601f168015610b2e5780820380516001836020036101000a031916815260200191505b50858103835287518152875160209182019189019080838360005b83811015610b61578181015183820152602001610b49565b50505050905090810190601f168015610b8e5780820380516001836020036101000a031916815260200191505b50858103825286518152865160209182019188019080838360005b83811015610bc1578181015183820152602001610ba9565b50505050905090810190601f168015610bee5780820380516001836020036101000a031916815260200191505b509850505050505050505060405180910390f35b6101d560048036036040811015610c1857600080fd5b506001600160a01b0381358116916020013516612117565b6102cb60048036036020811015610c4657600080fd5b50356001600160a01b0316612145565b610c7360048036036020811015610c6c57600080fd5b503561219d565b60405180806020018060200180602001878152602001806020018060200186810386528c818151815260200191508051906020019080838360005b83811015610cc6578181015183820152602001610cae565b50505050905090810190601f168015610cf35780820380516001836020036101000a031916815260200191505b5086810385528b5181528b516020918201918d019080838360005b83811015610d26578181015183820152602001610d0e565b50505050905090810190601f168015610d535780820380516001836020036101000a031916815260200191505b5086810384528a5181528a516020918201918c019080838360005b83811015610d86578181015183820152602001610d6e565b50505050905090810190601f168015610db35780820380516001836020036101000a031916815260200191505b5086810383528851815288516020918201918a019080838360005b83811015610de6578181015183820152602001610dce565b50505050905090810190601f168015610e135780820380516001836020036101000a031916815260200191505b50868103825287518152875160209182019189019080838360005b83811015610e46578181015183820152602001610e2e565b50505050905090810190601f168015610e735780820380516001836020036101000a031916815260200191505b509b50505050505050505050505060405180910390f35b6001600160e01b03191660009081526020819052604090205460ff1690565b60098054604080516020601f6002600019610100600188161502019095169490940493840181900481028201810190925282815260609390929091830182828015610f355780601f10610f0a57610100808354040283529160200191610f35565b820191906000526020600020905b815481529060010190602001808311610f1857829003601f168201915b505050505090505b90565b6000610f4b826124d9565b1515610f8b57604051600160e51b62461bcd02815260040180806020018281038252602c81526020018061306f602c913960400191505060405180910390fd5b506000908152600260205260409020546001600160a01b031690565b6000610fb28261198e565b90506001600160a01b03838116908216141561100257604051600160e51b62461bcd0281526004018080602001828103825260218152602001806131136021913960400191505060405180910390fd5b806001600160a01b03166110146124f6565b6001600160a01b031614806110355750611035816110306124f6565b612117565b151561107557604051600160e51b62461bcd028152600401808060200182810382526038815260200180612fe46038913960400191505060405180910390fd5b60008281526002602052604080822080546001600160a01b0319166001600160a01b0387811691821790925591518593918516917f8c5be1e5ebec7d5bd14f71427d1e84f3dd0314c0f7b2291e5b200ac8c7c3b92591a4505050565b60075490565b6000816110e3816124d9565b15156110ee57600080fd5b336110f88261198e565b6001600160a01b03161461110b57600080fd5b336000908152600e602052604090208054600019850190811061112a57fe5b906000526020600020906008020160060154915050919050565b61115561114f6124f6565b826124fa565b151561119557604051600160e51b62461bcd0281526004018080602001828103825260318152602001806131346031913960400191505060405180910390fd5b6111a08383836125a3565b505050565b600c54600160a01b900460ff16156111bc57600080fd5b336000908152600e60209081526040808320815160e0810183528a81528084018a9052918201889052606082018790526080820186905260a0820185905260c0820184905280546001810180835591855293839020825180519295939460089094029091019261123192849290910190612e30565b50602082810151805161124a9260018501920190612e30565b5060408201518051611266916002840191602090910190612e30565b50606082015160038201556080820151805161128c916004840191602090910190612e30565b5060a082015180516112a8916005840191602090910190612e30565b5060c0919091015160069091015550336000908152600d60205260408120805460010190556112d56125c2565b90506112e133826125e2565b7f8ce31173f83343252a41aa4b6d34e5ad54f69d907780e0e538dccdb43f6c9cd38686868686604051808060200180602001868152602001806020018060200185810385528a818151815260200191508051906020019080838360005b8381101561135657818101518382015260200161133e565b50505050905090810190601f1680156113835780820380516001836020036101000a031916815260200191505b5085810384528951815289516020918201918b019080838360005b838110156113b657818101518382015260200161139e565b50505050905090810190601f1680156113e35780820380516001836020036101000a031916815260200191505b50858103835287518152875160209182019189019080838360005b838110156114165781810151838201526020016113fe565b50505050905090810190601f1680156114435780820380516001836020036101000a031916815260200191505b50858103825286518152865160209182019188019080838360005b8381101561147657818101518382015260200161145e565b50505050905090810190601f1680156114a35780820380516001836020036101000a031916815260200191505b50995050505050505050505060405180910390a150505050505050565b60006114cb83611a4b565b821061150b57604051600160e51b62461bcd02815260040180806020018281038252602b815260200180612f11602b913960400191505060405180910390fd5b6001600160a01b038316600090815260056020526040902080548390811061152f57fe5b9060005260206000200154905092915050565b6111a083838360405180602001604052806000815250611ce6565b84611567816124d9565b151561157257600080fd5b3361157c8261198e565b6001600160a01b03161461158f57600080fd5b600c54600160a01b900460ff16156115a657600080fd5b336000908152600e60205260408120805460001989019081106115c557fe5b90600052602060002090600802016006015490506115e1612eae565b5060408051608081018252878152602080820188905281830187905260608201869052336000908152600e9091529190912080548291906000198b0190811061162657fe5b600091825260208083208684526007600890930201919091018152604090912082518051919261165b92849290910190612e30565b5060208281015180516116749260018501920190612e30565b5060408201518051611690916002840191602090910190612e30565b50606082015180516116ac916003840191602090910190612e30565b5050336000908152600e6020526040902080546001850192506000198b019081106116d357fe5b9060005260206000209060080201600601819055507f2fe55365084067a83ed1bb9d05c75e7ed63c59a650ddd97ceaf0b12c71e74a89878787876040518080602001806020018060200180602001858103855289818151815260200191508051906020019080838360005b8381101561175657818101518382015260200161173e565b50505050905090810190601f1680156117835780820380516001836020036101000a031916815260200191505b5085810384528851815288516020918201918a019080838360005b838110156117b657818101518382015260200161179e565b50505050905090810190601f1680156117e35780820380516001836020036101000a031916815260200191505b50858103835287518152875160209182019189019080838360005b838110156118165781810151838201526020016117fe565b50505050905090810190601f1680156118435780820380516001836020036101000a031916815260200191505b50858103825286518152865160209182019188019080838360005b8381101561187657818101518382015260200161185e565b50505050905090810190601f1680156118a35780820380516001836020036101000a031916815260200191505b509850505050505050505060405180910390a15050505050505050565b60006118ca6110d1565b821061190a57604051600160e51b62461bcd02815260040180806020018281038252602c815260200180613165602c913960400191505060405180910390fd5b600780548390811061191857fe5b90600052602060002001549050919050565b611932611b5d565b15156119765760408051600160e51b62461bcd028152602060048201819052602482015260008051602061309b833981519152604482015290519081900360640190fd5b600c8054600160a01b60ff021916600160a01b179055565b6000818152600160205260408120546001600160a01b03168015156119e757604051600160e51b62461bcd0281526004018080602001828103825260298152602001806130466029913960400191505060405180910390fd5b92915050565b6119f5611b5d565b1515611a395760408051600160e51b62461bcd028152602060048201819052602482015260008051602061309b833981519152604482015290519081900360640190fd5b600c8054600160a01b60ff0219169055565b60006001600160a01b0382161515611a9757604051600160e51b62461bcd02815260040180806020018281038252602a81526020018061301c602a913960400191505060405180910390fd5b6001600160a01b03821660009081526003602052604090206119e790612603565b611ac0611b5d565b1515611b045760408051600160e51b62461bcd028152602060048201819052602482015260008051602061309b833981519152604482015290519081900360640190fd5b600c546040516000916001600160a01b0316907f8be0079c531659141344cd1fd0a4f28419497f9722a3daafe3b4186f6b6457e0908390a3600c80546001600160a01b0319169055565b600c546001600160a01b031690565b600c546000906001600160a01b0316611b746124f6565b6001600160a01b031614905090565b600a8054604080516020601f6002600019610100600188161502019095169490940493840181900481028201810190925282815260609390929091830182828015610f355780601f10610f0a57610100808354040283529160200191610f35565b611bec6124f6565b6001600160a01b0383811691161415611c4f5760408051600160e51b62461bcd02815260206004820152601960248201527f4552433732313a20617070726f766520746f2063616c6c657200000000000000604482015290519081900360640190fd5b8060046000611c5c6124f6565b6001600160a01b03908116825260208083019390935260409182016000908120918716808252919093529120805460ff191692151592909217909155611ca06124f6565b60408051841515815290516001600160a01b0392909216917f17307eab39ab6107e8899845ad3d59bd9653f200f220920489ca2b5937696c319181900360200190a35050565b611cf7611cf16124f6565b836124fa565b1515611d3757604051600160e51b62461bcd0281526004018080602001828103825260318152602001806131346031913960400191505060405180910390fd5b611d4384848484612607565b50505050565b6060611d54826124d9565b1515611d9457604051600160e51b62461bcd02815260040180806020018281038252602f8152602001806130e4602f913960400191505060405180910390fd5b6000828152600b602090815260409182902080548351601f600260001961010060018616150201909316929092049182018490048402810184019094528084529091830182828015611e275780601f10611dfc57610100808354040283529160200191611e27565b820191906000526020600020905b815481529060010190602001808311611e0a57829003601f168201915b50505050509050919050565b60608060608085611e43816124d9565b1515611e4e57600080fd5b33611e588261198e565b6001600160a01b031614611e6b57600080fd5b336000908152600e6020526040812080546000198a01908110611e8a57fe5b90600052602060002090600802016007016000888152602001908152602001600020905080600001816001018260020183600301838054600181600116156101000203166002900480601f016020809104026020016040519081016040528092919081815260200182805460018160011615610100020316600290048015611f535780601f10611f2857610100808354040283529160200191611f53565b820191906000526020600020905b815481529060010190602001808311611f3657829003601f168201915b5050865460408051602060026001851615610100026000190190941693909304601f810184900484028201840190925281815295995088945092508401905082828015611fe15780601f10611fb657610100808354040283529160200191611fe1565b820191906000526020600020905b815481529060010190602001808311611fc457829003601f168201915b5050855460408051602060026001851615610100026000190190941693909304601f81018490048402820184019092528181529598508794509250840190508282801561206f5780601f106120445761010080835404028352916020019161206f565b820191906000526020600020905b81548152906001019060200180831161205257829003601f168201915b5050845460408051602060026001851615610100026000190190941693909304601f8101849004840282018401909252818152959750869450925084019050828280156120fd5780601f106120d2576101008083540402835291602001916120fd565b820191906000526020600020905b8154815290600101906020018083116120e057829003601f168201915b505050505090509550955095509550505092959194509250565b6001600160a01b03918216600090815260046020908152604080832093909416825291909152205460ff1690565b61214d611b5d565b15156121915760408051600160e51b62461bcd028152602060048201819052602482015260008051602061309b833981519152604482015290519081900360640190fd5b61219a8161265e565b50565b336000908152600e6020526040812080546060928392839283918291849190899081106121c657fe5b9060005260206000209060080201905080600001816001018260020183600301548460040185600501858054600181600116156101000203166002900480601f0160208091040260200160405190810160405280929190818152602001828054600181600116156101000203166002900480156122845780601f1061225957610100808354040283529160200191612284565b820191906000526020600020905b81548152906001019060200180831161226757829003601f168201915b5050885460408051602060026001851615610100026000190190941693909304601f8101849004840282018401909252818152959b508a9450925084019050828280156123125780601f106122e757610100808354040283529160200191612312565b820191906000526020600020905b8154815290600101906020018083116122f557829003601f168201915b5050875460408051602060026001851615610100026000190190941693909304601f8101849004840282018401909252818152959a50899450925084019050828280156123a05780601f10612375576101008083540402835291602001916123a0565b820191906000526020600020905b81548152906001019060200180831161238357829003601f168201915b5050855460408051602060026001851615610100026000190190941693909304601f81018490048402820184019092528181529599508794509250840190508282801561242e5780601f106124035761010080835404028352916020019161242e565b820191906000526020600020905b81548152906001019060200180831161241157829003601f168201915b5050845460408051602060026001851615610100026000190190941693909304601f8101849004840282018401909252818152959750869450925084019050828280156124bc5780601f10612491576101008083540402835291602001916124bc565b820191906000526020600020905b81548152906001019060200180831161249f57829003601f168201915b505050505090509650965096509650965096505091939550919395565b6000908152600160205260409020546001600160a01b0316151590565b3390565b6000612505826124d9565b151561254557604051600160e51b62461bcd02815260040180806020018281038252602c815260200180612fb8602c913960400191505060405180910390fd5b60006125508361198e565b9050806001600160a01b0316846001600160a01b0316148061258b5750836001600160a01b031661258084610f40565b6001600160a01b0316145b8061259b575061259b8185612117565b949350505050565b6125ae838383612704565b6125b88382612850565b6111a08282612947565b60006125dd60016125d16110d1565b9063ffffffff61298516565b905090565b6125ec82826129e9565b6125f68282612947565b6125ff81612b22565b5050565b5490565b6126128484846125a3565b61261e84848484612b66565b1515611d4357604051600160e51b62461bcd028152600401808060200182810382526032815260200180612f3c6032913960400191505060405180910390fd5b6001600160a01b03811615156126a857604051600160e51b62461bcd028152600401808060200182810382526026815260200180612f6e6026913960400191505060405180910390fd5b600c546040516001600160a01b038084169216907f8be0079c531659141344cd1fd0a4f28419497f9722a3daafe3b4186f6b6457e090600090a3600c80546001600160a01b0319166001600160a01b0392909216919091179055565b826001600160a01b03166127178261198e565b6001600160a01b03161461275f57604051600160e51b62461bcd0281526004018080602001828103825260298152602001806130bb6029913960400191505060405180910390fd5b6001600160a01b03821615156127a957604051600160e51b62461bcd028152600401808060200182810382526024815260200180612f946024913960400191505060405180910390fd5b6127b281612cc2565b6001600160a01b03831660009081526003602052604090206127d390612cfd565b6001600160a01b03821660009081526003602052604090206127f490612d14565b60008181526001602052604080822080546001600160a01b0319166001600160a01b0386811691821790925591518493918716917fddf252ad1be2c89b69c2b068fc378daa952ba7f163c4a11628f55a4df523b3ef91a4505050565b6001600160a01b03821660009081526005602052604081205461287a90600163ffffffff612d1d16565b600083815260066020526040902054909150808214612917576001600160a01b03841660009081526005602052604081208054849081106128b757fe5b906000526020600020015490508060056000876001600160a01b03166001600160a01b03168152602001908152602001600020838154811015156128f757fe5b600091825260208083209091019290925591825260069052604090208190555b6001600160a01b0384166000908152600560205260409020805490612940906000198301612ed6565b5050505050565b6001600160a01b0390911660009081526005602081815260408084208054868652600684529185208290559282526001810183559183529091200155565b6000828201838110156129e25760408051600160e51b62461bcd02815260206004820152601b60248201527f536166654d6174683a206164646974696f6e206f766572666c6f770000000000604482015290519081900360640190fd5b9392505050565b6001600160a01b0382161515612a495760408051600160e51b62461bcd02815260206004820181905260248201527f4552433732313a206d696e7420746f20746865207a65726f2061646472657373604482015290519081900360640190fd5b612a52816124d9565b15612aa75760408051600160e51b62461bcd02815260206004820152601c60248201527f4552433732313a20746f6b656e20616c7265616479206d696e74656400000000604482015290519081900360640190fd5b600081815260016020908152604080832080546001600160a01b0319166001600160a01b038716908117909155835260039091529020612ae690612d14565b60405181906001600160a01b038416906000907fddf252ad1be2c89b69c2b068fc378daa952ba7f163c4a11628f55a4df523b3ef908290a45050565b600780546000838152600860205260408120829055600182018355919091527fa66cc928b5edb82af9bd49922954155ab7b0942694bea4ce44661d9a8736c6880155565b6000612b7a846001600160a01b0316612d5f565b1515612b885750600161259b565b6000846001600160a01b031663150b7a02612ba16124f6565b8887876040518563ffffffff1660e01b815260040180856001600160a01b03166001600160a01b03168152602001846001600160a01b03166001600160a01b0316815260200183815260200180602001828103825283818151815260200191508051906020019080838360005b83811015612c26578181015183820152602001612c0e565b50505050905090810190601f168015612c535780820380516001836020036101000a031916815260200191505b5095505050505050602060405180830381600087803b158015612c7557600080fd5b505af1158015612c89573d6000803e3d6000fd5b505050506040513d6020811015612c9f57600080fd5b50516001600160e01b031916600160e11b630a85bd010214915050949350505050565b6000818152600260205260409020546001600160a01b03161561219a57600090815260026020526040902080546001600160a01b0319169055565b8054612d1090600163ffffffff612d1d16565b9055565b80546001019055565b60006129e283836040518060400160405280601e81526020017f536166654d6174683a207375627472616374696f6e206f766572666c6f770000815250612d96565b6000813f7fc5d2460186f7233c927e7db2dcc703c0e500b653ca82273b7bfad8045d85a470811580159061259b5750141592915050565b60008184841115612e2857604051600160e51b62461bcd0281526004018080602001828103825283818151815260200191508051906020019080838360005b83811015612ded578181015183820152602001612dd5565b50505050905090810190601f168015612e1a5780820380516001836020036101000a031916815260200191505b509250505060405180910390fd5b505050900390565b828054600181600116156101000203166002900490600052602060002090601f016020900481019282601f10612e7157805160ff1916838001178555612e9e565b82800160010185558215612e9e579182015b82811115612e9e578251825591602001919060010190612e83565b50612eaa929150612ef6565b5090565b6040518060800160405280606081526020016060815260200160608152602001606081525090565b8154818355818111156111a0576000838152602090206111a09181019083015b610f3d91905b80821115612eaa5760008155600101612efc56fe455243373231456e756d657261626c653a206f776e657220696e646578206f7574206f6620626f756e64734552433732313a207472616e7366657220746f206e6f6e20455243373231526563656976657220696d706c656d656e7465724f776e61626c653a206e6577206f776e657220697320746865207a65726f20616464726573734552433732313a207472616e7366657220746f20746865207a65726f20616464726573734552433732313a206f70657261746f7220717565727920666f72206e6f6e6578697374656e7420746f6b656e4552433732313a20617070726f76652063616c6c6572206973206e6f74206f776e6572206e6f7220617070726f76656420666f7220616c6c4552433732313a2062616c616e636520717565727920666f7220746865207a65726f20616464726573734552433732313a206f776e657220717565727920666f72206e6f6e6578697374656e7420746f6b656e4552433732313a20617070726f76656420717565727920666f72206e6f6e6578697374656e7420746f6b656e4f776e61626c653a2063616c6c6572206973206e6f7420746865206f776e65724552433732313a207472616e73666572206f6620746f6b656e2074686174206973206e6f74206f776e4552433732314d657461646174613a2055524920717565727920666f72206e6f6e6578697374656e7420746f6b656e4552433732313a20617070726f76616c20746f2063757272656e74206f776e65724552433732313a207472616e736665722063616c6c6572206973206e6f74206f776e6572206e6f7220617070726f766564455243373231456e756d657261626c653a20676c6f62616c20696e646578206f7574206f6620626f756e6473a165627a7a723058206897aa3e786407c587640f5d4d554bf777707436835db6e8284eaa77688fdf490029",
  "source": "pragma solidity ^0.5.0;\n\nimport \"@openzeppelin/contracts/token/ERC721/ERC721Full.sol\";\nimport \"@openzeppelin/contracts/token/ERC721/ERC721Mintable.sol\";\n\nimport \"@openzeppelin/contracts/ownership/Ownable.sol\";\n\n/*\n  The car contract keeps track of the car owner, car data and all the car events\n  during the car life\n*/\ncontract Car is ERC721Full, Ownable {\n\n  // for circuit breaker pattern\n  bool private stopped = false;\n\n  struct CarEvent {\n    string eventType;\n    string createdAt;\n    // IPFS uri for event file attached\n    string attachmentUrl;\n    string description;\n  }\n\n  struct CarData {\n    string make; \n    string model; \n    string chassisId; \n    uint manufacturingYear; \n    string description; \n    // IPFS uri for the picture\n    string pictureUrl; \n    \n    uint totalEvents;\n    mapping(uint => CarEvent) events;    \n  }\n\n  mapping(address => uint) totalUserCars;  \n\n  mapping(address => CarData[]) cars;  \n\n  event LogCarCreation(string model, string chassisId, uint manufacturingYear, string description, string pictureUrl);\n\n  event LogEventCreation(string eventType, string createdAt, string attachmentUrl, string description);\n\n  /**\n   * @dev Checks if the msg.sender has access to the token by checking token existence and ownership\n   * @param tokenId identificator of the token\n   */\n  modifier hasAccessTo(uint tokenId) {\n    require(_exists(tokenId));\n    require(ownerOf(tokenId) == msg.sender);\n    _;\n  }\n\n  modifier stopInEmergency { require(!stopped); _; }\n\n  // ERC721 functions\n  /**\n   * @dev Defines the Car token when creating the contract \n   */\n  constructor() ERC721Full(\"CarToken\", \"CAR\") public { }\n\n  /**\n   * Circuit breaker pattern\n   */\n  function freeze() \n    public\n    onlyOwner() \n     {\n       stopped = true;    \n  }\n\n  /**\n   * Circuit breaker pattern\n   */\n  function unfreeze() \n    public\n    onlyOwner() \n     {\n       stopped = false;    \n  }\n\n  /**\n   * @dev Mints a token to the msg.sender address\n   *\n   * Anyone can mint a token\n   */\n  function mint(string memory _make, string memory _model, string memory _chassisId, uint _manufacturingYear, string memory _description, string memory _pictureUrl) \n    public\n    stopInEmergency() {\n\n      cars[msg.sender].push(CarData({\n        make: _make,\n        model: _model,\n        chassisId: _chassisId,\n        manufacturingYear: _manufacturingYear,\n        description: _description,\n        pictureUrl: _pictureUrl,\n        totalEvents: 0\n      }));\n\n      totalUserCars[msg.sender] = totalUserCars[msg.sender] + 1;\n\n      uint256 newTokenId = _getNextTokenId();\n      _mint(msg.sender, newTokenId);      \n\n      emit LogCarCreation(_model, _chassisId, _manufacturingYear, _description, _pictureUrl);\n  }\n\n\n  /**\n   * @dev Creates a new car event for a given car tokenId\n   * \n   * - Only car owner can retrieve events\n   */\n   function getCarData(uint _carIndex) \n      public \n      view \n      returns (string memory, string memory, string memory, uint, string memory, string memory) { \n\n        CarData storage c = cars[msg.sender][_carIndex];\n\n        return (c.make, c.model, c.chassisId, c.manufacturingYear, c.description, c.pictureUrl);\n   }\n\n  /**\n   * @dev Creates a new car event for a given car tokenId\n   *\n   * - The tokenId must exist.\n   * - Only car owner can create car event.\n   */\n  function addCarEvent(uint _tokenId, string memory _eventType, string memory _createdAt, string memory _attachmentUrl, string memory _description) \n    public \n    hasAccessTo(_tokenId) \n    stopInEmergency() {\n\n    uint totalEvents = cars[msg.sender][_tokenId-1].totalEvents;\n\n    CarEvent memory evt = CarEvent({\n      eventType: _eventType,\n      createdAt: _createdAt,\n      attachmentUrl: _attachmentUrl,\n      description: _description\n    });\n\n    cars[msg.sender][_tokenId-1].events[totalEvents] = evt;\n\n    cars[msg.sender][_tokenId-1].totalEvents = totalEvents + 1;\n\n    emit LogEventCreation(_eventType, _createdAt, _attachmentUrl, _description);\n  }\n\n\n  function carEventsCount(uint _tokenId) \n      public \n      view \n      hasAccessTo(_tokenId)\n      returns (uint) {\n\n    return cars[msg.sender][_tokenId-1].totalEvents;\n  }\n\n  \n\n  /**\n   * @dev Creates a new car event for a given car tokenId\n   * \n   * - Only car owner can retrieve events\n   */\n   function getCarEvent(uint _tokenId, uint _eventIndex) \n      public \n      view \n      hasAccessTo(_tokenId)\n      returns (string memory, string memory, string memory, string memory) { \n     \n     CarEvent storage evt = cars[msg.sender][_tokenId-1].events[_eventIndex];\n\n     return (evt.eventType, evt.createdAt, evt.attachmentUrl, evt.description);     \n   }\n\n\n  /**\n   * @dev calculates the next token ID based on totalSupply\n   * @return uint256 for the next token ID\n   */\n  function _getNextTokenId() private view returns (uint256) {\n    return totalSupply().add(1); \n  }\n\n}\n",
  "sourcePath": "/Users/serveba/workspace_golang/src/CarNetworkDapp/contracts/Car.sol",
  "compiler": {
    "name": "solc",
    "version": "0.5.5+commit.47a71e8f.Emscripten.clang"
  },
  "schemaVersion": "3.0.6",
  "updatedAt": "2020-02-03T08:24:34.583Z",
  "devdoc": {
    "methods": {
      "addCarEvent(uint256,string,string,string,string)": {
        "details": "Creates a new car event for a given car tokenId   * - The tokenId must exist. - Only car owner can create car event."
      },
      "approve(address,uint256)": {
        "details": "Approves another address to transfer the given token ID The zero address indicates there is no approved address. There can only be one approved address per token at a given time. Can only be called by the token owner or an approved operator.",
        "params": {
          "to": "address to be approved for the given token ID",
          "tokenId": "uint256 ID of the token to be approved"
        }
      },
      "balanceOf(address)": {
        "details": "Gets the balance of the specified address.",
        "params": {
          "owner": "address to query the balance of"
        },
        "return": "uint256 representing the amount owned by the passed address"
      },
      "constructor": {
        "details": "Defines the Car token when creating the contract "
      },
      "getApproved(uint256)": {
        "details": "Gets the approved address for a token ID, or zero if no address set Reverts if the token ID does not exist.",
        "params": {
          "tokenId": "uint256 ID of the token to query the approval of"
        },
        "return": "address currently approved for the given token ID"
      },
      "getCarData(uint256)": {
        "details": "Creates a new car event for a given car tokenId    * - Only car owner can retrieve events"
      },
      "getCarEvent(uint256,uint256)": {
        "details": "Creates a new car event for a given car tokenId    * - Only car owner can retrieve events"
      },
      "isApprovedForAll(address,address)": {
        "details": "Tells whether an operator is approved by a given owner.",
        "params": {
          "operator": "operator address which you want to query the approval of",
          "owner": "owner address which you want to query the approval of"
        },
        "return": "bool whether the given operator is approved by the given owner"
      },
      "isOwner()": {
        "details": "Returns true if the caller is the current owner."
      },
      "mint(string,string,string,uint256,string,string)": {
        "details": "Mints a token to the msg.sender address   * Anyone can mint a token"
      },
      "name()": {
        "details": "Gets the token name.",
        "return": "string representing the token name"
      },
      "owner()": {
        "details": "Returns the address of the current owner."
      },
      "ownerOf(uint256)": {
        "details": "Gets the owner of the specified token ID.",
        "params": {
          "tokenId": "uint256 ID of the token to query the owner of"
        },
        "return": "address currently marked as the owner of the given token ID"
      },
      "renounceOwnership()": {
        "details": "Leaves the contract without owner. It will not be possible to call `onlyOwner` functions anymore. Can only be called by the current owner.     * NOTE: Renouncing ownership will leave the contract without an owner, thereby removing any functionality that is only available to the owner."
      },
      "safeTransferFrom(address,address,uint256)": {
        "details": "Safely transfers the ownership of a given token ID to another address If the target address is a contract, it must implement {IERC721Receiver-onERC721Received}, which is called upon a safe transfer, and return the magic value `bytes4(keccak256(\"onERC721Received(address,address,uint256,bytes)\"))`; otherwise, the transfer is reverted. Requires the msg.sender to be the owner, approved, or operator",
        "params": {
          "from": "current owner of the token",
          "to": "address to receive the ownership of the given token ID",
          "tokenId": "uint256 ID of the token to be transferred"
        }
      },
      "safeTransferFrom(address,address,uint256,bytes)": {
        "details": "Safely transfers the ownership of a given token ID to another address If the target address is a contract, it must implement {IERC721Receiver-onERC721Received}, which is called upon a safe transfer, and return the magic value `bytes4(keccak256(\"onERC721Received(address,address,uint256,bytes)\"))`; otherwise, the transfer is reverted. Requires the _msgSender() to be the owner, approved, or operator",
        "params": {
          "_data": "bytes data to send along with a safe transfer check",
          "from": "current owner of the token",
          "to": "address to receive the ownership of the given token ID",
          "tokenId": "uint256 ID of the token to be transferred"
        }
      },
      "setApprovalForAll(address,bool)": {
        "details": "Sets or unsets the approval of a given operator An operator is allowed to transfer all tokens of the sender on their behalf.",
        "params": {
          "approved": "representing the status of the approval to be set",
          "to": "operator address to set the approval"
        }
      },
      "supportsInterface(bytes4)": {
        "details": "See {IERC165-supportsInterface}.     * Time complexity O(1), guaranteed to always use less than 30 000 gas."
      },
      "symbol()": {
        "details": "Gets the token symbol.",
        "return": "string representing the token symbol"
      },
      "tokenByIndex(uint256)": {
        "details": "Gets the token ID at a given index of all the tokens in this contract Reverts if the index is greater or equal to the total number of tokens.",
        "params": {
          "index": "uint256 representing the index to be accessed of the tokens list"
        },
        "return": "uint256 token ID at the given index of the tokens list"
      },
      "tokenOfOwnerByIndex(address,uint256)": {
        "details": "Gets the token ID at a given index of the tokens list of the requested owner.",
        "params": {
          "index": "uint256 representing the index to be accessed of the requested tokens list",
          "owner": "address owning the tokens list to be accessed"
        },
        "return": "uint256 token ID at the given index of the tokens list owned by the requested address"
      },
      "tokenURI(uint256)": {
        "details": "Returns an URI for a given token ID. Throws if the token ID does not exist. May return an empty string.",
        "params": {
          "tokenId": "uint256 ID of the token to query"
        }
      },
      "totalSupply()": {
        "details": "Gets the total amount of tokens stored by the contract.",
        "return": "uint256 representing the total amount of tokens"
      },
      "transferFrom(address,address,uint256)": {
        "details": "Transfers the ownership of a given token ID to another address. Usage of this method is discouraged, use {safeTransferFrom} whenever possible. Requires the msg.sender to be the owner, approved, or operator.",
        "params": {
          "from": "current owner of the token",
          "to": "address to receive the ownership of the given token ID",
          "tokenId": "uint256 ID of the token to be transferred"
        }
      },
      "transferOwnership(address)": {
        "details": "Transfers ownership of the contract to a new account (`newOwner`). Can only be called by the current owner."
      }
    }
  },
  "userdoc": {
    "methods": {
      "freeze()": {
        "notice": "Circuit breaker pattern"
      },
      "unfreeze()": {
        "notice": "Circuit breaker pattern"
      }
    }
  }
}