{
  "contractName": "ERC721Mintable",
  "abi": [
    {
      "constant": true,
      "inputs": [
        {
          "name": "interfaceId",
          "type": "bytes4"
        }
      ],
      "name": "supportsInterface",
      "outputs": [
        {
          "name": "",
          "type": "bool"
        }
      ],
      "payable": false,
      "stateMutability": "view",
      "type": "function"
    },
    {
      "constant": true,
      "inputs": [
        {
          "name": "tokenId",
          "type": "uint256"
        }
      ],
      "name": "getApproved",
      "outputs": [
        {
          "name": "",
          "type": "address"
        }
      ],
      "payable": false,
      "stateMutability": "view",
      "type": "function"
    },
    {
      "constant": false,
      "inputs": [
        {
          "name": "to",
          "type": "address"
        },
        {
          "name": "tokenId",
          "type": "uint256"
        }
      ],
      "name": "approve",
      "outputs": [],
      "payable": false,
      "stateMutability": "nonpayable",
      "type": "function"
    },
    {
      "constant": false,
      "inputs": [
        {
          "name": "from",
          "type": "address"
        },
        {
          "name": "to",
          "type": "address"
        },
        {
          "name": "tokenId",
          "type": "uint256"
        }
      ],
      "name": "transferFrom",
      "outputs": [],
      "payable": false,
      "stateMutability": "nonpayable",
      "type": "function"
    },
    {
      "constant": false,
      "inputs": [
        {
          "name": "from",
          "type": "address"
        },
        {
          "name": "to",
          "type": "address"
        },
        {
          "name": "tokenId",
          "type": "uint256"
        }
      ],
      "name": "safeTransferFrom",
      "outputs": [],
      "payable": false,
      "stateMutability": "nonpayable",
      "type": "function"
    },
    {
      "constant": true,
      "inputs": [
        {
          "name": "tokenId",
          "type": "uint256"
        }
      ],
      "name": "ownerOf",
      "outputs": [
        {
          "name": "",
          "type": "address"
        }
      ],
      "payable": false,
      "stateMutability": "view",
      "type": "function"
    },
    {
      "constant": true,
      "inputs": [
        {
          "name": "owner",
          "type": "address"
        }
      ],
      "name": "balanceOf",
      "outputs": [
        {
          "name": "",
          "type": "uint256"
        }
      ],
      "payable": false,
      "stateMutability": "view",
      "type": "function"
    },
    {
      "constant": false,
      "inputs": [
        {
          "name": "account",
          "type": "address"
        }
      ],
      "name": "addMinter",
      "outputs": [],
      "payable": false,
      "stateMutability": "nonpayable",
      "type": "function"
    },
    {
      "constant": false,
      "inputs": [],
      "name": "renounceMinter",
      "outputs": [],
      "payable": false,
      "stateMutability": "nonpayable",
      "type": "function"
    },
    {
      "constant": false,
      "inputs": [
        {
          "name": "to",
          "type": "address"
        },
        {
          "name": "approved",
          "type": "bool"
        }
      ],
      "name": "setApprovalForAll",
      "outputs": [],
      "payable": false,
      "stateMutability": "nonpayable",
      "type": "function"
    },
    {
      "constant": true,
      "inputs": [
        {
          "name": "account",
          "type": "address"
        }
      ],
      "name": "isMinter",
      "outputs": [
        {
          "name": "",
          "type": "bool"
        }
      ],
      "payable": false,
      "stateMutability": "view",
      "type": "function"
    },
    {
      "constant": false,
      "inputs": [
        {
          "name": "from",
          "type": "address"
        },
        {
          "name": "to",
          "type": "address"
        },
        {
          "name": "tokenId",
          "type": "uint256"
        },
        {
          "name": "_data",
          "type": "bytes"
        }
      ],
      "name": "safeTransferFrom",
      "outputs": [],
      "payable": false,
      "stateMutability": "nonpayable",
      "type": "function"
    },
    {
      "constant": true,
      "inputs": [
        {
          "name": "owner",
          "type": "address"
        },
        {
          "name": "operator",
          "type": "address"
        }
      ],
      "name": "isApprovedForAll",
      "outputs": [
        {
          "name": "",
          "type": "bool"
        }
      ],
      "payable": false,
      "stateMutability": "view",
      "type": "function"
    },
    {
      "anonymous": false,
      "inputs": [
        {
          "indexed": true,
          "name": "account",
          "type": "address"
        }
      ],
      "name": "MinterAdded",
      "type": "event"
    },
    {
      "anonymous": false,
      "inputs": [
        {
          "indexed": true,
          "name": "account",
          "type": "address"
        }
      ],
      "name": "MinterRemoved",
      "type": "event"
    },
    {
      "anonymous": false,
      "inputs": [
        {
          "indexed": true,
          "name": "from",
          "type": "address"
        },
        {
          "indexed": true,
          "name": "to",
          "type": "address"
        },
        {
          "indexed": true,
          "name": "tokenId",
          "type": "uint256"
        }
      ],
      "name": "Transfer",
      "type": "event"
    },
    {
      "anonymous": false,
      "inputs": [
        {
          "indexed": true,
          "name": "owner",
          "type": "address"
        },
        {
          "indexed": true,
          "name": "approved",
          "type": "address"
        },
        {
          "indexed": true,
          "name": "tokenId",
          "type": "uint256"
        }
      ],
      "name": "Approval",
      "type": "event"
    },
    {
      "anonymous": false,
      "inputs": [
        {
          "indexed": true,
          "name": "owner",
          "type": "address"
        },
        {
          "indexed": true,
          "name": "operator",
          "type": "address"
        },
        {
          "indexed": false,
          "name": "approved",
          "type": "bool"
        }
      ],
      "name": "ApprovalForAll",
      "type": "event"
    },
    {
      "constant": false,
      "inputs": [
        {
          "name": "to",
          "type": "address"
        },
        {
          "name": "tokenId",
          "type": "uint256"
        }
      ],
      "name": "mint",
      "outputs": [
        {
          "name": "",
          "type": "bool"
        }
      ],
      "payable": false,
      "stateMutability": "nonpayable",
      "type": "function"
    },
    {
      "constant": false,
      "inputs": [
        {
          "name": "to",
          "type": "address"
        },
        {
          "name": "tokenId",
          "type": "uint256"
        },
        {
          "name": "_data",
          "type": "bytes"
        }
      ],
      "name": "safeMint",
      "outputs": [
        {
          "name": "",
          "type": "bool"
        }
      ],
      "payable": false,
      "stateMutability": "nonpayable",
      "type": "function"
    },
    {
      "constant": false,
      "inputs": [
        {
          "name": "to",
          "type": "address"
        },
        {
          "name": "tokenId",
          "type": "uint256"
        }
      ],
      "name": "safeMint",
      "outputs": [
        {
          "name": "",
          "type": "bool"
        }
      ],
      "payable": false,
      "stateMutability": "nonpayable",
      "type": "function"
    }
  ],
  "bytecode": "0x60806040526200001c6301ffc9a760e01b6200005a60201b60201c565b620000346380ac58cd60e01b6200005a60201b60201c565b62000054620000486200012960201b60201c565b6200012d60201b60201c565b620002a8565b7fffffffff000000000000000000000000000000000000000000000000000000008082161415620000ec57604080517f08c379a000000000000000000000000000000000000000000000000000000000815260206004820152601c60248201527f4552433136353a20696e76616c696420696e7465726661636520696400000000604482015290519081900360640190fd5b7fffffffff00000000000000000000000000000000000000000000000000000000166000908152602081905260409020805460ff19166001179055565b3390565b620001488160056200017f60201b620011e81790919060201c565b6040516001600160a01b038216907f6ae172837ea30b801fbfcdd4108aa1d5bf8ff775444fd70256b44e6bf3dfc3f690600090a250565b6200019182826200022360201b60201c565b15620001fe57604080517f08c379a000000000000000000000000000000000000000000000000000000000815260206004820152601f60248201527f526f6c65733a206163636f756e7420616c72656164792068617320726f6c6500604482015290519081900360640190fd5b6001600160a01b0316600090815260209190915260409020805460ff19166001179055565b60006001600160a01b038216151562000288576040517f08c379a0000000000000000000000000000000000000000000000000000000008152600401808060200182810382526022815260200180620018fd6022913960400191505060405180910390fd5b506001600160a01b03166000908152602091909152604090205460ff1690565b61164580620002b86000396000f3fe608060405234801561001057600080fd5b50600436106101005760003560e01c80638832e6e311610097578063a22cb46511610066578063a22cb465146103a9578063aa271e1a146103d7578063b88d4fde146103fd578063e985e9c5146104c357610100565b80638832e6e314610294578063983b2d561461034f5780639865027514610375578063a14481941461037d57610100565b806340c10f19116100d357806340c10f19146101dd57806342842e0e146102095780636352211e1461023f57806370a082311461025c57610100565b806301ffc9a714610105578063081812fc14610140578063095ea7b31461017957806323b872dd146101a7575b600080fd5b61012c6004803603602081101561011b57600080fd5b50356001600160e01b0319166104f1565b604080519115158252519081900360200190f35b61015d6004803603602081101561015657600080fd5b5035610510565b604080516001600160a01b039092168252519081900360200190f35b6101a56004803603604081101561018f57600080fd5b506001600160a01b038135169060200135610577565b005b6101a5600480360360608110156101bd57600080fd5b506001600160a01b038135811691602081013590911690604001356106a1565b61012c600480360360408110156101f357600080fd5b506001600160a01b038135169060200135610702565b6101a56004803603606081101561021f57600080fd5b506001600160a01b03813581169160208101359091169060400135610767565b61015d6004803603602081101561025557600080fd5b5035610782565b6102826004803603602081101561027257600080fd5b50356001600160a01b03166107e1565b60408051918252519081900360200190f35b61012c600480360360608110156102aa57600080fd5b6001600160a01b03823516916020810135918101906060810160408201356401000000008111156102da57600080fd5b8201836020820111156102ec57600080fd5b8035906020019184600183028401116401000000008311171561030e57600080fd5b91908080601f01602080910402602001604051908101604052809392919081815260200183838082843760009201919091525092955061084e945050505050565b6101a56004803603602081101561036557600080fd5b50356001600160a01b03166108b0565b6101a5610907565b61012c6004803603604081101561039357600080fd5b506001600160a01b038135169060200135610919565b6101a5600480360360408110156103bf57600080fd5b506001600160a01b0381351690602001351515610970565b61012c600480360360208110156103ed57600080fd5b50356001600160a01b0316610a72565b6101a56004803603608081101561041357600080fd5b6001600160a01b0382358116926020810135909116916040820135919081019060808101606082013564010000000081111561044e57600080fd5b82018360208201111561046057600080fd5b8035906020019184600183028401116401000000008311171561048257600080fd5b91908080601f016020809104026020016040519081016040528093929190818152602001838380828437600092019190915250929550610a85945050505050565b61012c600480360360408110156104d957600080fd5b506001600160a01b0381358116916020013516610ae8565b6001600160e01b03191660009081526020819052604090205460ff1690565b600061051b82610b16565b151561055b57604051600160e51b62461bcd02815260040180806020018281038252602c815260200180611551602c913960400191505060405180910390fd5b506000908152600260205260409020546001600160a01b031690565b600061058282610782565b90506001600160a01b0383811690821614156105d257604051600160e51b62461bcd0281526004018080602001828103825260218152602001806115c86021913960400191505060405180910390fd5b806001600160a01b03166105e4610b33565b6001600160a01b03161480610605575061060581610600610b33565b610ae8565b151561064557604051600160e51b62461bcd0281526004018080602001828103825260388152602001806114756038913960400191505060405180910390fd5b60008281526002602052604080822080546001600160a01b0319166001600160a01b0387811691821790925591518593918516917f8c5be1e5ebec7d5bd14f71427d1e84f3dd0314c0f7b2291e5b200ac8c7c3b92591a4505050565b6106b26106ac610b33565b82610b37565b15156106f257604051600160e51b62461bcd0281526004018080602001828103825260318152602001806115e96031913960400191505060405180910390fd5b6106fd838383610be0565b505050565b600061071461070f610b33565b610a72565b151561075457604051600160e51b62461bcd0281526004018080602001828103825260308152602001806115006030913960400191505060405180910390fd5b61075e8383610d2c565b50600192915050565b6106fd83838360405180602001604052806000815250610a85565b6000818152600160205260408120546001600160a01b03168015156107db57604051600160e51b62461bcd0281526004018080602001828103825260298152602001806114d76029913960400191505060405180910390fd5b92915050565b60006001600160a01b038216151561082d57604051600160e51b62461bcd02815260040180806020018281038252602a8152602001806114ad602a913960400191505060405180910390fd5b6001600160a01b03821660009081526003602052604090206107db90610e65565b600061085b61070f610b33565b151561089b57604051600160e51b62461bcd0281526004018080602001828103825260308152602001806115006030913960400191505060405180910390fd5b6108a6848484610e69565b5060019392505050565b6108bb61070f610b33565b15156108fb57604051600160e51b62461bcd0281526004018080602001828103825260308152602001806115006030913960400191505060405180910390fd5b61090481610ec0565b50565b610917610912610b33565b610f08565b565b600061092661070f610b33565b151561096657604051600160e51b62461bcd0281526004018080602001828103825260308152602001806115006030913960400191505060405180910390fd5b61075e8383610f50565b610978610b33565b6001600160a01b03838116911614156109db5760408051600160e51b62461bcd02815260206004820152601960248201527f4552433732313a20617070726f766520746f2063616c6c657200000000000000604482015290519081900360640190fd5b80600460006109e8610b33565b6001600160a01b03908116825260208083019390935260409182016000908120918716808252919093529120805460ff191692151592909217909155610a2c610b33565b60408051841515815290516001600160a01b0392909216917f17307eab39ab6107e8899845ad3d59bd9653f200f220920489ca2b5937696c319181900360200190a35050565b60006107db60058363ffffffff610f6e16565b610a96610a90610b33565b83610b37565b1515610ad657604051600160e51b62461bcd0281526004018080602001828103825260318152602001806115e96031913960400191505060405180910390fd5b610ae284848484610fda565b50505050565b6001600160a01b03918216600090815260046020908152604080832093909416825291909152205460ff1690565b6000908152600160205260409020546001600160a01b0316151590565b3390565b6000610b4282610b16565b1515610b8257604051600160e51b62461bcd02815260040180806020018281038252602c815260200180611449602c913960400191505060405180910390fd5b6000610b8d83610782565b9050806001600160a01b0316846001600160a01b03161480610bc85750836001600160a01b0316610bbd84610510565b6001600160a01b0316145b80610bd85750610bd88185610ae8565b949350505050565b826001600160a01b0316610bf382610782565b6001600160a01b031614610c3b57604051600160e51b62461bcd02815260040180806020018281038252602981526020018061159f6029913960400191505060405180910390fd5b6001600160a01b0382161515610c8557604051600160e51b62461bcd0281526004018080602001828103825260248152602001806114256024913960400191505060405180910390fd5b610c8e81611031565b6001600160a01b0383166000908152600360205260409020610caf9061106c565b6001600160a01b0382166000908152600360205260409020610cd090611083565b60008181526001602052604080822080546001600160a01b0319166001600160a01b0386811691821790925591518493918716917fddf252ad1be2c89b69c2b068fc378daa952ba7f163c4a11628f55a4df523b3ef91a4505050565b6001600160a01b0382161515610d8c5760408051600160e51b62461bcd02815260206004820181905260248201527f4552433732313a206d696e7420746f20746865207a65726f2061646472657373604482015290519081900360640190fd5b610d9581610b16565b15610dea5760408051600160e51b62461bcd02815260206004820152601c60248201527f4552433732313a20746f6b656e20616c7265616479206d696e74656400000000604482015290519081900360640190fd5b600081815260016020908152604080832080546001600160a01b0319166001600160a01b038716908117909155835260039091529020610e2990611083565b60405181906001600160a01b038416906000907fddf252ad1be2c89b69c2b068fc378daa952ba7f163c4a11628f55a4df523b3ef908290a45050565b5490565b610e738383610d2c565b610e80600084848461108c565b15156106fd57604051600160e51b62461bcd0281526004018080602001828103825260328152602001806113f36032913960400191505060405180910390fd5b610ed160058263ffffffff6111e816565b6040516001600160a01b038216907f6ae172837ea30b801fbfcdd4108aa1d5bf8ff775444fd70256b44e6bf3dfc3f690600090a250565b610f1960058263ffffffff61126c16565b6040516001600160a01b038216907fe94479a9f7e1952cc78f2d6baab678adc1b772d936c6583def489e524cb6669290600090a250565b610f6a828260405180602001604052806000815250610e69565b5050565b60006001600160a01b0382161515610fba57604051600160e51b62461bcd02815260040180806020018281038252602281526020018061157d6022913960400191505060405180910390fd5b506001600160a01b03166000908152602091909152604090205460ff1690565b610fe5848484610be0565b610ff18484848461108c565b1515610ae257604051600160e51b62461bcd0281526004018080602001828103825260328152602001806113f36032913960400191505060405180910390fd5b6000818152600260205260409020546001600160a01b03161561090457600090815260026020526040902080546001600160a01b0319169055565b805461107f90600163ffffffff6112d816565b9055565b80546001019055565b60006110a0846001600160a01b0316611321565b15156110ae57506001610bd8565b6000846001600160a01b031663150b7a026110c7610b33565b8887876040518563ffffffff1660e01b815260040180856001600160a01b03166001600160a01b03168152602001846001600160a01b03166001600160a01b0316815260200183815260200180602001828103825283818151815260200191508051906020019080838360005b8381101561114c578181015183820152602001611134565b50505050905090810190601f1680156111795780820380516001836020036101000a031916815260200191505b5095505050505050602060405180830381600087803b15801561119b57600080fd5b505af11580156111af573d6000803e3d6000fd5b505050506040513d60208110156111c557600080fd5b50516001600160e01b031916600160e11b630a85bd010214915050949350505050565b6111f28282610f6e565b156112475760408051600160e51b62461bcd02815260206004820152601f60248201527f526f6c65733a206163636f756e7420616c72656164792068617320726f6c6500604482015290519081900360640190fd5b6001600160a01b0316600090815260209190915260409020805460ff19166001179055565b6112768282610f6e565b15156112b657604051600160e51b62461bcd0281526004018080602001828103825260218152602001806115306021913960400191505060405180910390fd5b6001600160a01b0316600090815260209190915260409020805460ff19169055565b600061131a83836040518060400160405280601e81526020017f536166654d6174683a207375627472616374696f6e206f766572666c6f770000815250611358565b9392505050565b6000813f7fc5d2460186f7233c927e7db2dcc703c0e500b653ca82273b7bfad8045d85a4708115801590610bd85750141592915050565b600081848411156113ea57604051600160e51b62461bcd0281526004018080602001828103825283818151815260200191508051906020019080838360005b838110156113af578181015183820152602001611397565b50505050905090810190601f1680156113dc5780820380516001836020036101000a031916815260200191505b509250505060405180910390fd5b50505090039056fe4552433732313a207472616e7366657220746f206e6f6e20455243373231526563656976657220696d706c656d656e7465724552433732313a207472616e7366657220746f20746865207a65726f20616464726573734552433732313a206f70657261746f7220717565727920666f72206e6f6e6578697374656e7420746f6b656e4552433732313a20617070726f76652063616c6c6572206973206e6f74206f776e6572206e6f7220617070726f76656420666f7220616c6c4552433732313a2062616c616e636520717565727920666f7220746865207a65726f20616464726573734552433732313a206f776e657220717565727920666f72206e6f6e6578697374656e7420746f6b656e4d696e746572526f6c653a2063616c6c657220646f6573206e6f74206861766520746865204d696e74657220726f6c65526f6c65733a206163636f756e7420646f6573206e6f74206861766520726f6c654552433732313a20617070726f76656420717565727920666f72206e6f6e6578697374656e7420746f6b656e526f6c65733a206163636f756e7420697320746865207a65726f20616464726573734552433732313a207472616e73666572206f6620746f6b656e2074686174206973206e6f74206f776e4552433732313a20617070726f76616c20746f2063757272656e74206f776e65724552433732313a207472616e736665722063616c6c6572206973206e6f74206f776e6572206e6f7220617070726f766564a165627a7a72305820f12c308da1f8ca9cd9bb7913b5d4f4af4f0d6bd1fe6d24fe9f860bfee12ad6290029526f6c65733a206163636f756e7420697320746865207a65726f2061646472657373",
  "source": "pragma solidity ^0.5.0;\n\nimport \"./ERC721.sol\";\nimport \"../../access/roles/MinterRole.sol\";\n\n/**\n * @title ERC721Mintable\n * @dev ERC721 minting logic.\n */\ncontract ERC721Mintable is ERC721, MinterRole {\n    /**\n     * @dev Function to mint tokens.\n     * @param to The address that will receive the minted token.\n     * @param tokenId The token id to mint.\n     * @return A boolean that indicates if the operation was successful.\n     */\n    function mint(address to, uint256 tokenId) public onlyMinter returns (bool) {\n        _mint(to, tokenId);\n        return true;\n    }\n\n    /**\n     * @dev Function to safely mint tokens.\n     * @param to The address that will receive the minted token.\n     * @param tokenId The token id to mint.\n     * @return A boolean that indicates if the operation was successful.\n     */\n    function safeMint(address to, uint256 tokenId) public onlyMinter returns (bool) {\n        _safeMint(to, tokenId);\n        return true;\n    }\n\n    /**\n     * @dev Function to safely mint tokens.\n     * @param to The address that will receive the minted token.\n     * @param tokenId The token id to mint.\n     * @param _data bytes data to send along with a safe transfer check.\n     * @return A boolean that indicates if the operation was successful.\n     */\n    function safeMint(address to, uint256 tokenId, bytes memory _data) public onlyMinter returns (bool) {\n        _safeMint(to, tokenId, _data);\n        return true;\n    }\n}\n",
  "sourcePath": "@openzeppelin/contracts/token/ERC721/ERC721Mintable.sol",
  "compiler": {
    "name": "solc",
    "version": "0.5.5+commit.47a71e8f.Emscripten.clang"
  },
  "schemaVersion": "3.0.6",
  "updatedAt": "2020-02-03T08:23:58.556Z",
  "devdoc": {
    "details": "ERC721 minting logic.",
    "methods": {
      "approve(address,uint256)": {
        "details": "Approves another address to transfer the given token ID The zero address indicates there is no approved address. There can only be one approved address per token at a given time. Can only be called by the token owner or an approved operator.",
        "params": {
          "to": "address to be approved for the given token ID",
          "tokenId": "uint256 ID of the token to be approved"
        }
      },
      "balanceOf(address)": {
        "details": "Gets the balance of the specified address.",
        "params": {
          "owner": "address to query the balance of"
        },
        "return": "uint256 representing the amount owned by the passed address"
      },
      "getApproved(uint256)": {
        "details": "Gets the approved address for a token ID, or zero if no address set Reverts if the token ID does not exist.",
        "params": {
          "tokenId": "uint256 ID of the token to query the approval of"
        },
        "return": "address currently approved for the given token ID"
      },
      "isApprovedForAll(address,address)": {
        "details": "Tells whether an operator is approved by a given owner.",
        "params": {
          "operator": "operator address which you want to query the approval of",
          "owner": "owner address which you want to query the approval of"
        },
        "return": "bool whether the given operator is approved by the given owner"
      },
      "mint(address,uint256)": {
        "details": "Function to mint tokens.",
        "params": {
          "to": "The address that will receive the minted token.",
          "tokenId": "The token id to mint."
        },
        "return": "A boolean that indicates if the operation was successful."
      },
      "ownerOf(uint256)": {
        "details": "Gets the owner of the specified token ID.",
        "params": {
          "tokenId": "uint256 ID of the token to query the owner of"
        },
        "return": "address currently marked as the owner of the given token ID"
      },
      "safeMint(address,uint256)": {
        "details": "Function to safely mint tokens.",
        "params": {
          "to": "The address that will receive the minted token.",
          "tokenId": "The token id to mint."
        },
        "return": "A boolean that indicates if the operation was successful."
      },
      "safeMint(address,uint256,bytes)": {
        "details": "Function to safely mint tokens.",
        "params": {
          "_data": "bytes data to send along with a safe transfer check.",
          "to": "The address that will receive the minted token.",
          "tokenId": "The token id to mint."
        },
        "return": "A boolean that indicates if the operation was successful."
      },
      "safeTransferFrom(address,address,uint256)": {
        "details": "Safely transfers the ownership of a given token ID to another address If the target address is a contract, it must implement {IERC721Receiver-onERC721Received}, which is called upon a safe transfer, and return the magic value `bytes4(keccak256(\"onERC721Received(address,address,uint256,bytes)\"))`; otherwise, the transfer is reverted. Requires the msg.sender to be the owner, approved, or operator",
        "params": {
          "from": "current owner of the token",
          "to": "address to receive the ownership of the given token ID",
          "tokenId": "uint256 ID of the token to be transferred"
        }
      },
      "safeTransferFrom(address,address,uint256,bytes)": {
        "details": "Safely transfers the ownership of a given token ID to another address If the target address is a contract, it must implement {IERC721Receiver-onERC721Received}, which is called upon a safe transfer, and return the magic value `bytes4(keccak256(\"onERC721Received(address,address,uint256,bytes)\"))`; otherwise, the transfer is reverted. Requires the _msgSender() to be the owner, approved, or operator",
        "params": {
          "_data": "bytes data to send along with a safe transfer check",
          "from": "current owner of the token",
          "to": "address to receive the ownership of the given token ID",
          "tokenId": "uint256 ID of the token to be transferred"
        }
      },
      "setApprovalForAll(address,bool)": {
        "details": "Sets or unsets the approval of a given operator An operator is allowed to transfer all tokens of the sender on their behalf.",
        "params": {
          "approved": "representing the status of the approval to be set",
          "to": "operator address to set the approval"
        }
      },
      "supportsInterface(bytes4)": {
        "details": "See {IERC165-supportsInterface}.     * Time complexity O(1), guaranteed to always use less than 30 000 gas."
      },
      "transferFrom(address,address,uint256)": {
        "details": "Transfers the ownership of a given token ID to another address. Usage of this method is discouraged, use {safeTransferFrom} whenever possible. Requires the msg.sender to be the owner, approved, or operator.",
        "params": {
          "from": "current owner of the token",
          "to": "address to receive the ownership of the given token ID",
          "tokenId": "uint256 ID of the token to be transferred"
        }
      }
    },
    "title": "ERC721Mintable"
  },
  "userdoc": {
    "methods": {}
  }
}